{
  "contractName": "BloodBank",
  "abi": [
    {
      "inputs": [],
      "stateMutability": "nonpayable",
      "type": "constructor"
    },
    {
      "anonymous": false,
      "inputs": [
        {
          "indexed": false,
          "internalType": "address",
          "name": "admin",
          "type": "address"
        }
      ],
      "name": "AdminLoggedIn",
      "type": "event"
    },
    {
      "anonymous": false,
      "inputs": [
        {
          "indexed": false,
          "internalType": "address",
          "name": "donor",
          "type": "address"
        },
        {
          "indexed": false,
          "internalType": "enum BloodBank.BloodType",
          "name": "bloodType",
          "type": "uint8"
        },
        {
          "indexed": false,
          "internalType": "uint256",
          "name": "amount",
          "type": "uint256"
        }
      ],
      "name": "BloodDonated",
      "type": "event"
    },
    {
      "anonymous": false,
      "inputs": [
        {
          "indexed": false,
          "internalType": "address",
          "name": "patient",
          "type": "address"
        },
        {
          "indexed": false,
          "internalType": "enum BloodBank.BloodType",
          "name": "bloodType",
          "type": "uint8"
        }
      ],
      "name": "BloodRequested",
      "type": "event"
    },
    {
      "anonymous": false,
      "inputs": [
        {
          "indexed": false,
          "internalType": "address",
          "name": "patient",
          "type": "address"
        },
        {
          "components": [
            {
              "internalType": "bool",
              "name": "isResponded",
              "type": "bool"
            },
            {
              "internalType": "enum BloodBank.BloodType",
              "name": "bloodType",
              "type": "uint8"
            },
            {
              "internalType": "uint256",
              "name": "amount",
              "type": "uint256"
            },
            {
              "internalType": "bool",
              "name": "response",
              "type": "bool"
            }
          ],
          "indexed": false,
          "internalType": "struct BloodBank.Request",
          "name": "request",
          "type": "tuple"
        }
      ],
      "name": "BloodRequested",
      "type": "event"
    },
    {
      "anonymous": false,
      "inputs": [
        {
          "indexed": false,
          "internalType": "address",
          "name": "donor",
          "type": "address"
        }
      ],
      "name": "DonorPermissionGranted",
      "type": "event"
    },
    {
      "anonymous": false,
      "inputs": [
        {
          "indexed": false,
          "internalType": "address",
          "name": "donor",
          "type": "address"
        }
      ],
      "name": "DonorPermissionRevoked",
      "type": "event"
    },
    {
      "anonymous": false,
      "inputs": [
        {
          "indexed": false,
          "internalType": "address",
          "name": "donor",
          "type": "address"
        },
        {
          "indexed": false,
          "internalType": "string",
          "name": "name",
          "type": "string"
        },
        {
          "indexed": false,
          "internalType": "enum BloodBank.BloodType",
          "name": "bloodType",
          "type": "uint8"
        }
      ],
      "name": "DonorRegistered",
      "type": "event"
    },
    {
      "anonymous": false,
      "inputs": [
        {
          "indexed": false,
          "internalType": "address",
          "name": "hospital",
          "type": "address"
        },
        {
          "indexed": false,
          "internalType": "string",
          "name": "name",
          "type": "string"
        },
        {
          "indexed": false,
          "internalType": "address",
          "name": "location",
          "type": "address"
        }
      ],
      "name": "HospitalRegistered",
      "type": "event"
    },
    {
      "anonymous": false,
      "inputs": [
        {
          "indexed": false,
          "internalType": "address",
          "name": "patient",
          "type": "address"
        }
      ],
      "name": "PatientPermissionGranted",
      "type": "event"
    },
    {
      "anonymous": false,
      "inputs": [
        {
          "indexed": false,
          "internalType": "address",
          "name": "patient",
          "type": "address"
        }
      ],
      "name": "PatientPermissionRevoked",
      "type": "event"
    },
    {
      "anonymous": false,
      "inputs": [
        {
          "indexed": false,
          "internalType": "address",
          "name": "patient",
          "type": "address"
        },
        {
          "indexed": false,
          "internalType": "string",
          "name": "name",
          "type": "string"
        },
        {
          "indexed": false,
          "internalType": "enum BloodBank.BloodType",
          "name": "bloodType",
          "type": "uint8"
        }
      ],
      "name": "PatientRegistered",
      "type": "event"
    },
    {
      "anonymous": false,
      "inputs": [
        {
          "indexed": false,
          "internalType": "address",
          "name": "patient",
          "type": "address"
        },
        {
          "indexed": false,
          "internalType": "bool",
          "name": "response",
          "type": "bool"
        },
        {
          "indexed": false,
          "internalType": "enum BloodBank.BloodType",
          "name": "bloodType",
          "type": "uint8"
        },
        {
          "indexed": false,
          "internalType": "uint256",
          "name": "amount",
          "type": "uint256"
        }
      ],
      "name": "RequestResponded",
      "type": "event"
    },
    {
      "inputs": [],
      "name": "admin",
      "outputs": [
        {
          "internalType": "address",
          "name": "",
          "type": "address"
        }
      ],
      "stateMutability": "view",
      "type": "function",
      "constant": true
    },
    {
      "inputs": [
        {
          "internalType": "address",
          "name": "",
          "type": "address"
        }
      ],
      "name": "allowedDonors",
      "outputs": [
        {
          "internalType": "bool",
          "name": "",
          "type": "bool"
        }
      ],
      "stateMutability": "view",
      "type": "function",
      "constant": true
    },
    {
      "inputs": [
        {
          "internalType": "address",
          "name": "",
          "type": "address"
        }
      ],
      "name": "allowedPatients",
      "outputs": [
        {
          "internalType": "bool",
          "name": "",
          "type": "bool"
        }
      ],
      "stateMutability": "view",
      "type": "function",
      "constant": true
    },
    {
      "inputs": [
        {
          "internalType": "enum BloodBank.BloodType",
          "name": "",
          "type": "uint8"
        }
      ],
      "name": "availableBlood",
      "outputs": [
        {
          "internalType": "uint256",
          "name": "",
          "type": "uint256"
        }
      ],
      "stateMutability": "view",
      "type": "function",
      "constant": true
    },
    {
      "inputs": [
        {
          "internalType": "enum BloodBank.BloodType",
          "name": "",
          "type": "uint8"
        }
      ],
      "name": "bloodInventory",
      "outputs": [
        {
          "internalType": "uint256",
          "name": "",
          "type": "uint256"
        }
      ],
      "stateMutability": "view",
      "type": "function",
      "constant": true
    },
    {
      "inputs": [
        {
          "internalType": "address",
          "name": "",
          "type": "address"
        }
      ],
      "name": "bloodRequests",
      "outputs": [
        {
          "internalType": "bool",
          "name": "",
          "type": "bool"
        }
      ],
      "stateMutability": "view",
      "type": "function",
      "constant": true
    },
    {
      "inputs": [
        {
          "internalType": "uint256",
          "name": "",
          "type": "uint256"
        }
      ],
      "name": "donorAddresses",
      "outputs": [
        {
          "internalType": "address",
          "name": "",
          "type": "address"
        }
      ],
      "stateMutability": "view",
      "type": "function",
      "constant": true
    },
    {
      "inputs": [
        {
          "internalType": "address",
          "name": "",
          "type": "address"
        },
        {
          "internalType": "enum BloodBank.BloodType",
          "name": "",
          "type": "uint8"
        }
      ],
      "name": "donorBalances",
      "outputs": [
        {
          "internalType": "uint256",
          "name": "",
          "type": "uint256"
        }
      ],
      "stateMutability": "view",
      "type": "function",
      "constant": true
    },
    {
      "inputs": [
        {
          "internalType": "address",
          "name": "",
          "type": "address"
        }
      ],
      "name": "donors",
      "outputs": [
        {
          "internalType": "string",
          "name": "name",
          "type": "string"
        },
        {
          "internalType": "enum BloodBank.BloodType",
          "name": "bloodType",
          "type": "uint8"
        },
        {
          "internalType": "bool",
          "name": "isRegistered",
          "type": "bool"
        }
      ],
      "stateMutability": "view",
      "type": "function",
      "constant": true
    },
    {
      "inputs": [
        {
          "internalType": "address",
          "name": "",
          "type": "address"
        }
      ],
      "name": "hospitals",
      "outputs": [
        {
          "internalType": "string",
          "name": "name",
          "type": "string"
        },
        {
          "internalType": "address",
          "name": "location",
          "type": "address"
        },
        {
          "internalType": "bool",
          "name": "isRegistered",
          "type": "bool"
        }
      ],
      "stateMutability": "view",
      "type": "function",
      "constant": true
    },
    {
      "inputs": [
        {
          "internalType": "uint256",
          "name": "",
          "type": "uint256"
        }
      ],
      "name": "patientAddresses",
      "outputs": [
        {
          "internalType": "address",
          "name": "",
          "type": "address"
        }
      ],
      "stateMutability": "view",
      "type": "function",
      "constant": true
    },
    {
      "inputs": [
        {
          "internalType": "address",
          "name": "",
          "type": "address"
        },
        {
          "internalType": "enum BloodBank.BloodType",
          "name": "",
          "type": "uint8"
        },
        {
          "internalType": "uint256",
          "name": "",
          "type": "uint256"
        }
      ],
      "name": "patientRequests",
      "outputs": [
        {
          "internalType": "bool",
          "name": "isResponded",
          "type": "bool"
        },
        {
          "internalType": "enum BloodBank.BloodType",
          "name": "bloodType",
          "type": "uint8"
        },
        {
          "internalType": "uint256",
          "name": "amount",
          "type": "uint256"
        },
        {
          "internalType": "bool",
          "name": "response",
          "type": "bool"
        }
      ],
      "stateMutability": "view",
      "type": "function",
      "constant": true
    },
    {
      "inputs": [
        {
          "internalType": "address",
          "name": "",
          "type": "address"
        },
        {
          "internalType": "uint256",
          "name": "",
          "type": "uint256"
        }
      ],
      "name": "patientResponses",
      "outputs": [
        {
          "internalType": "bool",
          "name": "isResponded",
          "type": "bool"
        },
        {
          "internalType": "enum BloodBank.BloodType",
          "name": "bloodType",
          "type": "uint8"
        },
        {
          "internalType": "uint256",
          "name": "amount",
          "type": "uint256"
        },
        {
          "internalType": "bool",
          "name": "response",
          "type": "bool"
        }
      ],
      "stateMutability": "view",
      "type": "function",
      "constant": true
    },
    {
      "inputs": [
        {
          "internalType": "address",
          "name": "",
          "type": "address"
        }
      ],
      "name": "patients",
      "outputs": [
        {
          "internalType": "string",
          "name": "name",
          "type": "string"
        },
        {
          "internalType": "enum BloodBank.BloodType",
          "name": "bloodType",
          "type": "uint8"
        },
        {
          "internalType": "bool",
          "name": "isRegistered",
          "type": "bool"
        }
      ],
      "stateMutability": "view",
      "type": "function",
      "constant": true
    },
    {
      "inputs": [],
      "name": "totalBloodDonated",
      "outputs": [
        {
          "internalType": "uint256",
          "name": "",
          "type": "uint256"
        }
      ],
      "stateMutability": "view",
      "type": "function",
      "constant": true
    },
    {
      "inputs": [],
      "name": "totalDonors",
      "outputs": [
        {
          "internalType": "uint256",
          "name": "",
          "type": "uint256"
        }
      ],
      "stateMutability": "view",
      "type": "function",
      "constant": true
    },
    {
      "inputs": [],
      "name": "totalHospitals",
      "outputs": [
        {
          "internalType": "uint256",
          "name": "",
          "type": "uint256"
        }
      ],
      "stateMutability": "view",
      "type": "function",
      "constant": true
    },
    {
      "inputs": [],
      "name": "totalPatients",
      "outputs": [
        {
          "internalType": "uint256",
          "name": "",
          "type": "uint256"
        }
      ],
      "stateMutability": "view",
      "type": "function",
      "constant": true
    },
    {
      "inputs": [],
      "name": "adminLogin",
      "outputs": [
        {
          "internalType": "bool",
          "name": "",
          "type": "bool"
        }
      ],
      "stateMutability": "nonpayable",
      "type": "function"
    },
    {
      "inputs": [
        {
          "internalType": "address",
          "name": "donorAddress",
          "type": "address"
        }
      ],
      "name": "grantDonorPermission",
      "outputs": [],
      "stateMutability": "nonpayable",
      "type": "function"
    },
    {
      "inputs": [
        {
          "internalType": "address",
          "name": "donorAddress",
          "type": "address"
        }
      ],
      "name": "revokeDonorPermission",
      "outputs": [],
      "stateMutability": "nonpayable",
      "type": "function"
    },
    {
      "inputs": [
        {
          "internalType": "address",
          "name": "donorAddress",
          "type": "address"
        }
      ],
      "name": "isDonorAllowed",
      "outputs": [
        {
          "internalType": "bool",
          "name": "",
          "type": "bool"
        }
      ],
      "stateMutability": "view",
      "type": "function",
      "constant": true
    },
    {
      "inputs": [
        {
          "internalType": "address",
          "name": "patientAddress",
          "type": "address"
        }
      ],
      "name": "grantPatientPermission",
      "outputs": [],
      "stateMutability": "nonpayable",
      "type": "function"
    },
    {
      "inputs": [
        {
          "internalType": "address",
          "name": "patientAddress",
          "type": "address"
        }
      ],
      "name": "revokePatientPermission",
      "outputs": [],
      "stateMutability": "nonpayable",
      "type": "function"
    },
    {
      "inputs": [
        {
          "internalType": "address",
          "name": "patientAddress",
          "type": "address"
        }
      ],
      "name": "isPatientAllowed",
      "outputs": [
        {
          "internalType": "bool",
          "name": "",
          "type": "bool"
        }
      ],
      "stateMutability": "view",
      "type": "function",
      "constant": true
    },
    {
      "inputs": [
        {
          "internalType": "address",
          "name": "patientAddress",
          "type": "address"
        },
        {
          "internalType": "string",
          "name": "name",
          "type": "string"
        },
        {
          "internalType": "enum BloodBank.BloodType",
          "name": "bloodType",
          "type": "uint8"
        }
      ],
      "name": "addPatient",
      "outputs": [],
      "stateMutability": "nonpayable",
      "type": "function"
    },
    {
      "inputs": [
        {
          "internalType": "address",
          "name": "hospitalAddress",
          "type": "address"
        },
        {
          "internalType": "string",
          "name": "name",
          "type": "string"
        },
        {
          "internalType": "address",
          "name": "location",
          "type": "address"
        }
      ],
      "name": "addHospital",
      "outputs": [],
      "stateMutability": "nonpayable",
      "type": "function"
    },
    {
      "inputs": [
        {
          "internalType": "string",
          "name": "name",
          "type": "string"
        },
        {
          "internalType": "enum BloodBank.BloodType",
          "name": "bloodType",
          "type": "uint8"
        }
      ],
      "name": "registerAsDonor",
      "outputs": [],
      "stateMutability": "nonpayable",
      "type": "function"
    },
    {
      "inputs": [
        {
          "internalType": "string",
          "name": "name",
          "type": "string"
        },
        {
          "internalType": "enum BloodBank.BloodType",
          "name": "bloodType",
          "type": "uint8"
        }
      ],
      "name": "registerAsPatient",
      "outputs": [],
      "stateMutability": "nonpayable",
      "type": "function"
    },
    {
      "inputs": [
        {
          "internalType": "address",
          "name": "hospitalAddress",
          "type": "address"
        }
      ],
      "name": "locateHospitalToDonate",
      "outputs": [
        {
          "internalType": "string",
          "name": "name",
          "type": "string"
        },
        {
          "internalType": "address",
          "name": "location",
          "type": "address"
        }
      ],
      "stateMutability": "view",
      "type": "function",
      "constant": true
    },
    {
      "inputs": [
        {
          "internalType": "enum BloodBank.BloodType",
          "name": "bloodType",
          "type": "uint8"
        },
        {
          "internalType": "uint256",
          "name": "amount",
          "type": "uint256"
        }
      ],
      "name": "donateBlood",
      "outputs": [],
      "stateMutability": "nonpayable",
      "type": "function"
    },
    {
      "inputs": [],
      "name": "getTotalBloodDonated",
      "outputs": [
        {
          "internalType": "uint256",
          "name": "",
          "type": "uint256"
        }
      ],
      "stateMutability": "view",
      "type": "function",
      "constant": true
    },
    {
      "inputs": [
        {
          "internalType": "enum BloodBank.BloodType",
          "name": "bloodType",
          "type": "uint8"
        }
      ],
      "name": "getBloodInventory",
      "outputs": [
        {
          "internalType": "uint256",
          "name": "",
          "type": "uint256"
        }
      ],
      "stateMutability": "view",
      "type": "function",
      "constant": true
    },
    {
      "inputs": [
        {
          "internalType": "enum BloodBank.BloodType",
          "name": "bloodType",
          "type": "uint8"
        },
        {
          "internalType": "uint256",
          "name": "amount",
          "type": "uint256"
        }
      ],
      "name": "requestBlood",
      "outputs": [],
      "stateMutability": "nonpayable",
      "type": "function"
    },
    {
      "inputs": [
        {
          "internalType": "address",
          "name": "patientAddress",
          "type": "address"
        },
        {
          "internalType": "enum BloodBank.BloodType",
          "name": "bloodType",
          "type": "uint8"
        }
      ],
      "name": "getPatientRequests",
      "outputs": [
        {
          "components": [
            {
              "internalType": "bool",
              "name": "isResponded",
              "type": "bool"
            },
            {
              "internalType": "enum BloodBank.BloodType",
              "name": "bloodType",
              "type": "uint8"
            },
            {
              "internalType": "uint256",
              "name": "amount",
              "type": "uint256"
            },
            {
              "internalType": "bool",
              "name": "response",
              "type": "bool"
            }
          ],
          "internalType": "struct BloodBank.Request[]",
          "name": "",
          "type": "tuple[]"
        }
      ],
      "stateMutability": "view",
      "type": "function",
      "constant": true
    },
    {
      "inputs": [
        {
          "internalType": "address",
          "name": "patientAddress",
          "type": "address"
        },
        {
          "internalType": "enum BloodBank.BloodType",
          "name": "bloodType",
          "type": "uint8"
        },
        {
          "internalType": "bool",
          "name": "response",
          "type": "bool"
        }
      ],
      "name": "respondToRequest",
      "outputs": [],
      "stateMutability": "nonpayable",
      "type": "function"
    },
    {
      "inputs": [
        {
          "internalType": "address",
          "name": "patientAddress",
          "type": "address"
        }
      ],
      "name": "getPatientResponses",
      "outputs": [
        {
          "components": [
            {
              "internalType": "bool",
              "name": "isResponded",
              "type": "bool"
            },
            {
              "internalType": "enum BloodBank.BloodType",
              "name": "bloodType",
              "type": "uint8"
            },
            {
              "internalType": "uint256",
              "name": "amount",
              "type": "uint256"
            },
            {
              "internalType": "bool",
              "name": "response",
              "type": "bool"
            }
          ],
          "internalType": "struct BloodBank.Request[]",
          "name": "",
          "type": "tuple[]"
        }
      ],
      "stateMutability": "view",
      "type": "function",
      "constant": true
    },
    {
      "inputs": [],
      "name": "getRegisteredUsers",
      "outputs": [
        {
          "internalType": "address[]",
          "name": "registeredDonors",
          "type": "address[]"
        },
        {
          "internalType": "address[]",
          "name": "registeredPatients",
          "type": "address[]"
        }
      ],
      "stateMutability": "view",
      "type": "function",
      "constant": true
    },
    {
      "inputs": [],
      "name": "getAvailableBlood",
      "outputs": [
        {
          "internalType": "uint256[4]",
          "name": "availableBloodResults",
          "type": "uint256[4]"
        }
      ],
      "stateMutability": "view",
      "type": "function",
      "constant": true
    }
  ],
  "bytecode": "0x608060405234801561001057600080fd5b50336000806101000a81548173ffffffffffffffffffffffffffffffffffffffff021916908373ffffffffffffffffffffffffffffffffffffffff160217905550614542806100606000396000f3fe608060405234801561001057600080fd5b506004361061023d5760003560e01c806378771fb31161013b578063ba3e7aae116100b8578063deb5ef091161007c578063deb5ef0914610766578063e7620e7714610784578063f093cf80146107b4578063f1744bb1146107e6578063f851a440146108045761023d565b8063ba3e7aae146106ae578063c0bca7df146106ca578063c930f2ad146106e8578063ca0cdea814610718578063da0b7c101461074a5761023d565b80639b71377f116100ff5780639b71377f146105d2578063b40f169114610602578063b753098b14610632578063b8a2d4421461064e578063b9de02c01461067e5761023d565b806378771fb3146105325780637e4ed03d14610562578063894b8f0c1461057e578063958b865c1461059a5780639b0652b4146105b65761023d565b8063271473d1116101c95780635a77878e1161018d5780635a77878e146104795780636d661d53146104975780637073c072146104b357806375844cd1146104d257806376cd7083146105025761023d565b8063271473d1146103835780632b2aee5d146103b35780632bac19a2146103e3578063440bfe561461041657806345a7d1c7146104495761023d565b80631927b768116102105780631927b768146102dc5780631e9e2290146102fa57806325c302e414610316578063265c30c91461033457806326838ae3146103525761023d565b806303a14b4214610242578063063da53a1461025e5780630869cfbc1461027a5780630a1c8e68146102ac575b600080fd5b61025c600480360381019061025791906133e7565b610822565b005b610278600480360381019061027391906133e7565b610940565b005b610294600480360381019061028f91906133e7565b610a5f565b6040516102a393929190613f16565b60405180910390f35b6102c660048036038101906102c191906133e7565b610b2b565b6040516102d39190613e48565b60405180910390f35b6102e4610b81565b6040516102f191906140b4565b60405180910390f35b610314600480360381019061030f919061344c565b610b87565b005b61031e6110b8565b60405161032b91906140b4565b60405180910390f35b61033c6110be565b60405161034991906140b4565b60405180910390f35b61036c600480360381019061036791906133e7565b6110c4565b60405161037a929190613ea8565b60405180910390f35b61039d600480360381019061039891906133e7565b611291565b6040516103aa9190613e0b565b60405180910390f35b6103cd60048036038101906103c891906136ad565b6113f6565b6040516103da9190613c98565b60405180910390f35b6103fd60048036038101906103f8919061349b565b611435565b60405161040d9493929190613e63565b60405180910390f35b610430600480360381019061042b91906135b8565b6114b6565b6040516104409493929190613e63565b60405180910390f35b610463600480360381019061045e91906133e7565b61152a565b6040516104709190613e48565b60405180910390f35b610481611580565b60405161048e9190613e2d565b60405180910390f35b6104b160048036038101906104ac919061361d565b61172b565b005b6104bb6118f3565b6040516104c9929190613dd4565b60405180910390f35b6104ec60048036038101906104e791906135f4565b611a12565b6040516104f991906140b4565b60405180910390f35b61051c600480360381019061051791906133e7565b611a2a565b6040516105299190613e48565b60405180910390f35b61054c60048036038101906105479190613410565b611a4a565b60405161055991906140b4565b60405180910390f35b61057c600480360381019061057791906133e7565b611a6f565b005b6105986004803603810190610593919061361d565b611b8d565b005b6105b460048036038101906105af91906133e7565b611e4d565b005b6105d060048036038101906105cb9190613659565b611f6c565b005b6105ec60048036038101906105e79190613410565b612151565b6040516105f99190613e0b565b60405180910390f35b61061c600480360381019061061791906136ad565b612424565b6040516106299190613c98565b60405180910390f35b61064c60048036038101906106479190613659565b612463565b005b610668600480360381019061066391906135f4565b612648565b60405161067591906140b4565b60405180910390f35b610698600480360381019061069391906133e7565b6126d5565b6040516106a59190613e48565b60405180910390f35b6106c860048036038101906106c391906134ea565b6126f5565b005b6106d2612965565b6040516106df9190613e48565b60405180910390f35b61070260048036038101906106fd91906135f4565b6129a5565b60405161070f91906140b4565b60405180910390f35b610732600480360381019061072d91906133e7565b6129bd565b60405161074193929190613f16565b60405180910390f35b610764600480360381019061075f9190613551565b612a89565b005b61076e612d2a565b60405161077b91906140b4565b60405180910390f35b61079e600480360381019061079991906133e7565b612d30565b6040516107ab9190613e48565b60405180910390f35b6107ce60048036038101906107c991906133e7565b612d50565b6040516107dd93929190613ed8565b60405180910390f35b6107ee612e2f565b6040516107fb91906140b4565b60405180910390f35b61080c612e39565b6040516108199190613c98565b60405180910390f35b600a60008273ffffffffffffffffffffffffffffffffffffffff1673ffffffffffffffffffffffffffffffffffffffff16815260200190815260200160002060009054906101000a900460ff166108ae576040517f08c379a00000000000000000000000000000000000000000000000000000000081526004016108a590614054565b60405180910390fd5b6000600a60008373ffffffffffffffffffffffffffffffffffffffff1673ffffffffffffffffffffffffffffffffffffffff16815260200190815260200160002060006101000a81548160ff0219169083151502179055507f0d75f4177f5c2ba083d1f9ed47e125806407c82e261facc56bfed13d3295f085816040516109359190613c98565b60405180910390a150565b600a60008273ffffffffffffffffffffffffffffffffffffffff1673ffffffffffffffffffffffffffffffffffffffff16815260200190815260200160002060009054906101000a900460ff16156109cd576040517f08c379a00000000000000000000000000000000000000000000000000000000081526004016109c490613f94565b60405180910390fd5b6001600a60008373ffffffffffffffffffffffffffffffffffffffff1673ffffffffffffffffffffffffffffffffffffffff16815260200190815260200160002060006101000a81548160ff0219169083151502179055507f6470588e45881bf48bc4406748c2c44819598eae7041fca47408b90f441242c681604051610a549190613c98565b60405180910390a150565b6008602052806000526040600020600091509050806000018054610a8290614331565b80601f0160208091040260200160405190810160405280929190818152602001828054610aae90614331565b8015610afb5780601f10610ad057610100808354040283529160200191610afb565b820191906000526020600020905b815481529060010190602001808311610ade57829003601f168201915b5050505050908060010160009054906101000a900460ff16908060010160019054906101000a900460ff16905083565b6000600a60008373ffffffffffffffffffffffffffffffffffffffff1673ffffffffffffffffffffffffffffffffffffffff16815260200190815260200160002060009054906101000a900460ff169050919050565b60045481565b600860008473ffffffffffffffffffffffffffffffffffffffff1673ffffffffffffffffffffffffffffffffffffffff16815260200190815260200160002060010160019054906101000a900460ff16610c16576040517f08c379a0000000000000000000000000000000000000000000000000000000008152600401610c0d90613ff4565b60405180910390fd5b6000600f60008573ffffffffffffffffffffffffffffffffffffffff1673ffffffffffffffffffffffffffffffffffffffff1681526020019081526020016000206000846003811115610c92577f4e487b7100000000000000000000000000000000000000000000000000000000600052602160045260246000fd5b6003811115610cca577f4e487b7100000000000000000000000000000000000000000000000000000000600052602160045260246000fd5b81526020019081526020016000208054905011610d1c576040517f08c379a0000000000000000000000000000000000000000000000000000000008152600401610d1390613f54565b60405180910390fd5b6000600f60008573ffffffffffffffffffffffffffffffffffffffff1673ffffffffffffffffffffffffffffffffffffffff1681526020019081526020016000206000846003811115610d98577f4e487b7100000000000000000000000000000000000000000000000000000000600052602160045260246000fd5b6003811115610dd0577f4e487b7100000000000000000000000000000000000000000000000000000000600052602160045260246000fd5b81526020019081526020016000206001600f60008773ffffffffffffffffffffffffffffffffffffffff1673ffffffffffffffffffffffffffffffffffffffff1681526020019081526020016000206000866003811115610e5a577f4e487b7100000000000000000000000000000000000000000000000000000000600052602160045260246000fd5b6003811115610e92577f4e487b7100000000000000000000000000000000000000000000000000000000600052602160045260246000fd5b815260200190815260200160002080549050610eae9190614241565b81548110610ee5577f4e487b7100000000000000000000000000000000000000000000000000000000600052603260045260246000fd5b9060005260206000209060030201905060018160000160006101000a81548160ff021916908315150217905550818160020160006101000a81548160ff021916908315150217905550601060008573ffffffffffffffffffffffffffffffffffffffff1673ffffffffffffffffffffffffffffffffffffffff1681526020019081526020016000208190806001815401808255809150506001900390600052602060002090600302016000909190919091506000820160009054906101000a900460ff168160000160006101000a81548160ff0219169083151502179055506000820160019054906101000a900460ff168160000160016101000a81548160ff02191690836003811115611022577f4e487b7100000000000000000000000000000000000000000000000000000000600052602160045260246000fd5b0217905550600182015481600101556002820160009054906101000a900460ff168160020160006101000a81548160ff02191690831515021790555050507f0cb0eecdc646f95300ff59a3649e7f113854102f55590a186a114bdea39a68d884838360000160019054906101000a900460ff1684600101546040516110aa9493929190613cb3565b60405180910390a150505050565b60015481565b60035481565b60606000600960008473ffffffffffffffffffffffffffffffffffffffff1673ffffffffffffffffffffffffffffffffffffffff16815260200190815260200160002060010160149054906101000a900460ff16611157576040517f08c379a000000000000000000000000000000000000000000000000000000000815260040161114e90614014565b60405180910390fd5b600960008473ffffffffffffffffffffffffffffffffffffffff1673ffffffffffffffffffffffffffffffffffffffff168152602001908152602001600020600001600960008573ffffffffffffffffffffffffffffffffffffffff1673ffffffffffffffffffffffffffffffffffffffff16815260200190815260200160002060010160009054906101000a900473ffffffffffffffffffffffffffffffffffffffff1681805461120890614331565b80601f016020809104026020016040519081016040528092919081815260200182805461123490614331565b80156112815780601f1061125657610100808354040283529160200191611281565b820191906000526020600020905b81548152906001019060200180831161126457829003601f168201915b5050505050915091509150915091565b6060601060008373ffffffffffffffffffffffffffffffffffffffff1673ffffffffffffffffffffffffffffffffffffffff168152602001908152602001600020805480602002602001604051908101604052809291908181526020016000905b828210156113eb57838290600052602060002090600302016040518060800160405290816000820160009054906101000a900460ff161515151581526020016000820160019054906101000a900460ff16600381111561137b577f4e487b7100000000000000000000000000000000000000000000000000000000600052602160045260246000fd5b60038111156113b3577f4e487b7100000000000000000000000000000000000000000000000000000000600052602160045260246000fd5b8152602001600182015481526020016002820160009054906101000a900460ff161515151581525050815260200190600101906112f2565b505050509050919050565b6005818154811061140657600080fd5b906000526020600020016000915054906101000a900473ffffffffffffffffffffffffffffffffffffffff1681565b600f602052826000526040600020602052816000526040600020818154811061145d57600080fd5b906000526020600020906003020160009250925050508060000160009054906101000a900460ff16908060000160019054906101000a900460ff16908060010154908060020160009054906101000a900460ff16905084565b601060205281600052604060002081815481106114d257600080fd5b9060005260206000209060030201600091509150508060000160009054906101000a900460ff16908060000160019054906101000a900460ff16908060010154908060020160009054906101000a900460ff16905084565b6000600b60008373ffffffffffffffffffffffffffffffffffffffff1673ffffffffffffffffffffffffffffffffffffffff16815260200190815260200160002060009054906101000a900460ff169050919050565b611588613202565b60005b60048160ff1610156117275760008160ff1660038111156115d5577f4e487b7100000000000000000000000000000000000000000000000000000000600052602160045260246000fd5b90506000600d6000836003811115611616577f4e487b7100000000000000000000000000000000000000000000000000000000600052602160045260246000fd5b600381111561164e577f4e487b7100000000000000000000000000000000000000000000000000000000600052602160045260246000fd5b8152602001908152602001600020549050600061166a83612e5d565b90508082106116c957808261167f9190614241565b858560ff16600481106116bb577f4e487b7100000000000000000000000000000000000000000000000000000000600052603260045260246000fd5b602002018181525050611711565b6000858560ff1660048110611707577f4e487b7100000000000000000000000000000000000000000000000000000000600052603260045260246000fd5b6020020181815250505b505050808061171f906143ac565b91505061158b565b5090565b600e60003373ffffffffffffffffffffffffffffffffffffffff1673ffffffffffffffffffffffffffffffffffffffff16815260200190815260200160002060008360038111156117a5577f4e487b7100000000000000000000000000000000000000000000000000000000600052602160045260246000fd5b60038111156117dd577f4e487b7100000000000000000000000000000000000000000000000000000000600052602160045260246000fd5b815260200190815260200160002060008154809291906117fc90614363565b919050555080600d600084600381111561183f577f4e487b7100000000000000000000000000000000000000000000000000000000600052602160045260246000fd5b6003811115611877577f4e487b7100000000000000000000000000000000000000000000000000000000600052602160045260246000fd5b8152602001908152602001600020600082825461189491906141eb565b9250508190555080600460008282546118ad91906141eb565b925050819055507fc2f0fc24f51c0d69bcb224db3f20a529782afccd9cf749ccf983ae933ed08b813383836040516118e793929190613cf8565b60405180910390a15050565b606080600560068180548060200260200160405190810160405280929190818152602001828054801561197b57602002820191906000526020600020905b8160009054906101000a900473ffffffffffffffffffffffffffffffffffffffff1673ffffffffffffffffffffffffffffffffffffffff1681526020019060010190808311611931575b5050505050915080805480602002602001604051908101604052809291908181526020018280548015611a0357602002820191906000526020600020905b8160009054906101000a900473ffffffffffffffffffffffffffffffffffffffff1673ffffffffffffffffffffffffffffffffffffffff16815260200190600101908083116119b9575b50505050509050915091509091565b600d6020528060005260406000206000915090505481565b600a6020528060005260406000206000915054906101000a900460ff1681565b600e602052816000526040600020602052806000526040600020600091509150505481565b600b60008273ffffffffffffffffffffffffffffffffffffffff1673ffffffffffffffffffffffffffffffffffffffff16815260200190815260200160002060009054906101000a900460ff16611afb576040517f08c379a0000000000000000000000000000000000000000000000000000000008152600401611af290614034565b60405180910390fd5b6000600b60008373ffffffffffffffffffffffffffffffffffffffff1673ffffffffffffffffffffffffffffffffffffffff16815260200190815260200160002060006101000a81548160ff0219169083151502179055507f50b4f48c2b29bd3719894342dd2c27e3890b43d1fd5353022887ba15c8a8cf3e81604051611b829190613c98565b60405180910390a150565b600860003373ffffffffffffffffffffffffffffffffffffffff1673ffffffffffffffffffffffffffffffffffffffff16815260200190815260200160002060010160019054906101000a900460ff16611c1c576040517f08c379a0000000000000000000000000000000000000000000000000000000008152600401611c1390613fd4565b60405180910390fd5b60006040518060800160405280600015158152602001846003811115611c6b577f4e487b7100000000000000000000000000000000000000000000000000000000600052602160045260246000fd5b8152602001838152602001600015158152509050600f60003373ffffffffffffffffffffffffffffffffffffffff1673ffffffffffffffffffffffffffffffffffffffff168152602001908152602001600020600082602001516003811115611cfd577f4e487b7100000000000000000000000000000000000000000000000000000000600052602160045260246000fd5b6003811115611d35577f4e487b7100000000000000000000000000000000000000000000000000000000600052602160045260246000fd5b815260200190815260200160002081908060018154018082558091505060019003906000526020600020906003020160009091909190915060008201518160000160006101000a81548160ff02191690831515021790555060208201518160000160016101000a81548160ff02191690836003811115611dde577f4e487b7100000000000000000000000000000000000000000000000000000000600052602160045260246000fd5b02179055506040820151816001015560608201518160020160006101000a81548160ff02191690831515021790555050507fe0fd22686cb831b16f1f01cedcbd518d72c259a8bd2bca74f4ffe066159b783f3382604051611e40929190613dab565b60405180910390a1505050565b600b60008273ffffffffffffffffffffffffffffffffffffffff1673ffffffffffffffffffffffffffffffffffffffff16815260200190815260200160002060009054906101000a900460ff1615611eda576040517f08c379a0000000000000000000000000000000000000000000000000000000008152600401611ed190614074565b60405180910390fd5b6001600b60008373ffffffffffffffffffffffffffffffffffffffff1673ffffffffffffffffffffffffffffffffffffffff16815260200190815260200160002060006101000a81548160ff0219169083151502179055507f173926a5cd76513113da8c73e33cd759abb380c3fa117a8e50bbe24fd69e71b181604051611f619190613c98565b60405180910390a150565b6040518060600160405280838152602001826003811115611fb6577f4e487b7100000000000000000000000000000000000000000000000000000000600052602160045260246000fd5b815260200160011515815250600760003373ffffffffffffffffffffffffffffffffffffffff1673ffffffffffffffffffffffffffffffffffffffff168152602001908152602001600020600082015181600001908051906020019061201d929190613224565b5060208201518160010160006101000a81548160ff0219169083600381111561206f577f4e487b7100000000000000000000000000000000000000000000000000000000600052602160045260246000fd5b021790555060408201518160010160016101000a81548160ff0219169083151502179055509050506005339080600181540180825580915050600190039060005260206000200160009091909190916101000a81548173ffffffffffffffffffffffffffffffffffffffff021916908373ffffffffffffffffffffffffffffffffffffffff1602179055506001600081548092919061210d90614363565b91905055507f779163cb568883acd4f53ecd8b9b240d9167817266c43fa521301a32e8fd290b33838360405161214593929190613d6d565b60405180910390a15050565b60606000600f60008573ffffffffffffffffffffffffffffffffffffffff1673ffffffffffffffffffffffffffffffffffffffff16815260200190815260200160002060008460038111156121cf577f4e487b7100000000000000000000000000000000000000000000000000000000600052602160045260246000fd5b6003811115612207577f4e487b7100000000000000000000000000000000000000000000000000000000600052602160045260246000fd5b815260200190815260200160002090506000818054905067ffffffffffffffff81111561225d577f4e487b7100000000000000000000000000000000000000000000000000000000600052604160045260246000fd5b60405190808252806020026020018201604052801561229657816020015b6122836132aa565b81526020019060019003908161227b5790505b50905060005b8280549050811015612418578281815481106122e1577f4e487b7100000000000000000000000000000000000000000000000000000000600052603260045260246000fd5b90600052602060002090600302016040518060800160405290816000820160009054906101000a900460ff161515151581526020016000820160019054906101000a900460ff166003811115612360577f4e487b7100000000000000000000000000000000000000000000000000000000600052602160045260246000fd5b6003811115612398577f4e487b7100000000000000000000000000000000000000000000000000000000600052602160045260246000fd5b8152602001600182015481526020016002820160009054906101000a900460ff1615151515815250508282815181106123fa577f4e487b7100000000000000000000000000000000000000000000000000000000600052603260045260246000fd5b6020026020010181905250808061241090614363565b91505061229c565b50809250505092915050565b6006818154811061243457600080fd5b906000526020600020016000915054906101000a900473ffffffffffffffffffffffffffffffffffffffff1681565b60405180606001604052808381526020018260038111156124ad577f4e487b7100000000000000000000000000000000000000000000000000000000600052602160045260246000fd5b815260200160011515815250600860003373ffffffffffffffffffffffffffffffffffffffff1673ffffffffffffffffffffffffffffffffffffffff1681526020019081526020016000206000820151816000019080519060200190612514929190613224565b5060208201518160010160006101000a81548160ff02191690836003811115612566577f4e487b7100000000000000000000000000000000000000000000000000000000600052602160045260246000fd5b021790555060408201518160010160016101000a81548160ff0219169083151502179055509050506006339080600181540180825580915050600190039060005260206000200160009091909190916101000a81548173ffffffffffffffffffffffffffffffffffffffff021916908373ffffffffffffffffffffffffffffffffffffffff1602179055506002600081548092919061260490614363565b91905055507fd0279fc6af44cae89320e43efb9a695b3185662c6ada09288e9d440caa4543a633838360405161263c93929190613d6d565b60405180910390a15050565b6000600d6000836003811115612687577f4e487b7100000000000000000000000000000000000000000000000000000000600052602160045260246000fd5b60038111156126bf577f4e487b7100000000000000000000000000000000000000000000000000000000600052602160045260246000fd5b8152602001908152602001600020549050919050565b600b6020528060005260406000206000915054906101000a900460ff1681565b60008054906101000a900473ffffffffffffffffffffffffffffffffffffffff1673ffffffffffffffffffffffffffffffffffffffff163373ffffffffffffffffffffffffffffffffffffffff1614612783576040517f08c379a000000000000000000000000000000000000000000000000000000000815260040161277a90613f74565b60405180910390fd5b600960008473ffffffffffffffffffffffffffffffffffffffff1673ffffffffffffffffffffffffffffffffffffffff16815260200190815260200160002060010160149054906101000a900460ff1615612813576040517f08c379a000000000000000000000000000000000000000000000000000000000815260040161280a90614094565b60405180910390fd5b60405180606001604052808381526020018273ffffffffffffffffffffffffffffffffffffffff16815260200160011515815250600960008573ffffffffffffffffffffffffffffffffffffffff1673ffffffffffffffffffffffffffffffffffffffff16815260200190815260200160002060008201518160000190805190602001906128a2929190613224565b5060208201518160010160006101000a81548173ffffffffffffffffffffffffffffffffffffffff021916908373ffffffffffffffffffffffffffffffffffffffff16021790555060408201518160010160146101000a81548160ff0219169083151502179055509050506003600081548092919061292090614363565b91905055507fa2c0805b2d96cb9d515bef0880a6f601672ee7dd7b3f3b29e86c9b552e4661c883838360405161295893929190613d2f565b60405180910390a1505050565b60007fb59f440754e07ccf4f8158d21ab17643d0854c21b74aaffee912ad01931b2283336040516129969190613c98565b60405180910390a16001905090565b60116020528060005260406000206000915090505481565b60076020528060005260406000206000915090508060000180546129e090614331565b80601f0160208091040260200160405190810160405280929190818152602001828054612a0c90614331565b8015612a595780601f10612a2e57610100808354040283529160200191612a59565b820191906000526020600020905b815481529060010190602001808311612a3c57829003601f168201915b5050505050908060010160009054906101000a900460ff16908060010160019054906101000a900460ff16905083565b60008054906101000a900473ffffffffffffffffffffffffffffffffffffffff1673ffffffffffffffffffffffffffffffffffffffff163373ffffffffffffffffffffffffffffffffffffffff1614612b17576040517f08c379a0000000000000000000000000000000000000000000000000000000008152600401612b0e90613f74565b60405180910390fd5b600860008473ffffffffffffffffffffffffffffffffffffffff1673ffffffffffffffffffffffffffffffffffffffff16815260200190815260200160002060010160019054906101000a900460ff1615612ba7576040517f08c379a0000000000000000000000000000000000000000000000000000000008152600401612b9e90613fb4565b60405180910390fd5b6040518060600160405280838152602001826003811115612bf1577f4e487b7100000000000000000000000000000000000000000000000000000000600052602160045260246000fd5b815260200160011515815250600860008573ffffffffffffffffffffffffffffffffffffffff1673ffffffffffffffffffffffffffffffffffffffff1681526020019081526020016000206000820151816000019080519060200190612c58929190613224565b5060208201518160010160006101000a81548160ff02191690836003811115612caa577f4e487b7100000000000000000000000000000000000000000000000000000000600052602160045260246000fd5b021790555060408201518160010160016101000a81548160ff02191690831515021790555090505060026000815480929190612ce590614363565b91905055507fd0279fc6af44cae89320e43efb9a695b3185662c6ada09288e9d440caa4543a6838383604051612d1d93929190613d6d565b60405180910390a1505050565b60025481565b600c6020528060005260406000206000915054906101000a900460ff1681565b6009602052806000526040600020600091509050806000018054612d7390614331565b80601f0160208091040260200160405190810160405280929190818152602001828054612d9f90614331565b8015612dec5780601f10612dc157610100808354040283529160200191612dec565b820191906000526020600020905b815481529060010190602001808311612dcf57829003601f168201915b5050505050908060010160009054906101000a900473ffffffffffffffffffffffffffffffffffffffff16908060010160149054906101000a900460ff16905083565b6000600454905090565b60008054906101000a900473ffffffffffffffffffffffffffffffffffffffff1681565b6000806000612e6a613174565b905060005b8151811015613169576000600f6000848481518110612eb7577f4e487b7100000000000000000000000000000000000000000000000000000000600052603260045260246000fd5b602002602001015173ffffffffffffffffffffffffffffffffffffffff1673ffffffffffffffffffffffffffffffffffffffff1681526020019081526020016000206000876003811115612f34577f4e487b7100000000000000000000000000000000000000000000000000000000600052602160045260246000fd5b6003811115612f6c577f4e487b7100000000000000000000000000000000000000000000000000000000600052602160045260246000fd5b8152602001908152602001600020805480602002602001604051908101604052809291908181526020016000905b8282101561309357838290600052602060002090600302016040518060800160405290816000820160009054906101000a900460ff161515151581526020016000820160019054906101000a900460ff166003811115613023577f4e487b7100000000000000000000000000000000000000000000000000000000600052602160045260246000fd5b600381111561305b577f4e487b7100000000000000000000000000000000000000000000000000000000600052602160045260246000fd5b8152602001600182015481526020016002820160009054906101000a900460ff16151515158152505081526020019060010190612f9a565b50505050905060005b8151811015613154578181815181106130de577f4e487b7100000000000000000000000000000000000000000000000000000000600052603260045260246000fd5b60200260200101516000015161314157818181518110613127577f4e487b7100000000000000000000000000000000000000000000000000000000600052603260045260246000fd5b6020026020010151604001518561313e91906141eb565b94505b808061314c90614363565b91505061309c565b5050808061316190614363565b915050612e6f565b508192505050919050565b606060068054806020026020016040519081016040528092919081815260200182805480156131f857602002820191906000526020600020905b8160009054906101000a900473ffffffffffffffffffffffffffffffffffffffff1673ffffffffffffffffffffffffffffffffffffffff16815260200190600101908083116131ae575b5050505050905090565b6040518060800160405280600490602082028036833780820191505090505090565b82805461323090614331565b90600052602060002090601f0160209004810192826132525760008555613299565b82601f1061326b57805160ff1916838001178555613299565b82800160010185558215613299579182015b8281111561329857825182559160200191906001019061327d565b5b5090506132a6919061330e565b5090565b6040518060800160405280600015158152602001600060038111156132f8577f4e487b7100000000000000000000000000000000000000000000000000000000600052602160045260246000fd5b8152602001600081526020016000151581525090565b5b8082111561332757600081600090555060010161330f565b5090565b600061333e61333984614100565b6140cf565b90508281526020810184848401111561335657600080fd5b6133618482856142ef565b509392505050565b600081359050613378816144b7565b92915050565b60008135905061338d816144ce565b92915050565b6000813590506133a2816144e5565b92915050565b600082601f8301126133b957600080fd5b81356133c984826020860161332b565b91505092915050565b6000813590506133e1816144f5565b92915050565b6000602082840312156133f957600080fd5b600061340784828501613369565b91505092915050565b6000806040838503121561342357600080fd5b600061343185828601613369565b925050602061344285828601613393565b9150509250929050565b60008060006060848603121561346157600080fd5b600061346f86828701613369565b935050602061348086828701613393565b92505060406134918682870161337e565b9150509250925092565b6000806000606084860312156134b057600080fd5b60006134be86828701613369565b93505060206134cf86828701613393565b92505060406134e0868287016133d2565b9150509250925092565b6000806000606084860312156134ff57600080fd5b600061350d86828701613369565b935050602084013567ffffffffffffffff81111561352a57600080fd5b613536868287016133a8565b925050604061354786828701613369565b9150509250925092565b60008060006060848603121561356657600080fd5b600061357486828701613369565b935050602084013567ffffffffffffffff81111561359157600080fd5b61359d868287016133a8565b92505060406135ae86828701613393565b9150509250925092565b600080604083850312156135cb57600080fd5b60006135d985828601613369565b92505060206135ea858286016133d2565b9150509250929050565b60006020828403121561360657600080fd5b600061361484828501613393565b91505092915050565b6000806040838503121561363057600080fd5b600061363e85828601613393565b925050602061364f858286016133d2565b9150509250929050565b6000806040838503121561366c57600080fd5b600083013567ffffffffffffffff81111561368657600080fd5b613692858286016133a8565b92505060206136a385828601613393565b9150509250929050565b6000602082840312156136bf57600080fd5b60006136cd848285016133d2565b91505092915050565b60006136e2838361371e565b60208301905092915050565b60006136fa8383613bd0565b60808301905092915050565b60006137128383613c7a565b60208301905092915050565b61372781614275565b82525050565b61373681614275565b82525050565b60006137478261415a565b61375181856141ad565b935061375c83614130565b8060005b8381101561378d57815161377488826136d6565b975061377f83614186565b925050600181019050613760565b5085935050505092915050565b60006137a582614165565b6137af81856141be565b93506137ba83614140565b8060005b838110156137eb5781516137d288826136ee565b97506137dd83614193565b9250506001810190506137be565b5085935050505092915050565b61380181614170565b61380b81846141cf565b925061381682614150565b8060005b8381101561384757815161382e8782613706565b9650613839836141a0565b92505060018101905061381a565b505050505050565b61385881614287565b82525050565b61386781614287565b82525050565b613876816142dd565b82525050565b613885816142dd565b82525050565b60006138968261417b565b6138a081856141da565b93506138b08185602086016142fe565b6138b981614492565b840191505092915050565b60006138d1601f836141da565b91507f4e6f20626c6f6f6420646f6e6174696f6e207265717565737420666f756e64006000830152602082019050919050565b60006139116026836141da565b91507f4f6e6c79207468652061646d696e2063616e20706572666f726d20746869732060008301527f616374696f6e00000000000000000000000000000000000000000000000000006020830152604082019050919050565b6000613977601c836141da565b91507f446f6e6f7220616c726561647920686173207065726d697373696f6e000000006000830152602082019050919050565b60006139b7601a836141da565b91507f50617469656e7420616c726561647920726567697374657265640000000000006000830152602082019050919050565b60006139f76027836141da565b91507f596f75206e65656420746f20726567697374657220617320612070617469656e60008301527f74206669727374000000000000000000000000000000000000000000000000006020830152604082019050919050565b6000613a5d6016836141da565b91507f50617469656e74206e6f742072656769737465726564000000000000000000006000830152602082019050919050565b6000613a9d6017836141da565b91507f486f73706974616c206e6f7420726567697374657265640000000000000000006000830152602082019050919050565b6000613add6020836141da565b91507f50617469656e7420646f6573206e6f742068617665207065726d697373696f6e6000830152602082019050919050565b6000613b1d601e836141da565b91507f446f6e6f7220646f6573206e6f742068617665207065726d697373696f6e00006000830152602082019050919050565b6000613b5d601e836141da565b91507f50617469656e7420616c726561647920686173207065726d697373696f6e00006000830152602082019050919050565b6000613b9d601b836141da565b91507f486f73706974616c20616c7265616479207265676973746572656400000000006000830152602082019050919050565b608082016000820151613be6600085018261384f565b506020820151613bf9602085018261386d565b506040820151613c0c6040850182613c7a565b506060820151613c1f606085018261384f565b50505050565b608082016000820151613c3b600085018261384f565b506020820151613c4e602085018261386d565b506040820151613c616040850182613c7a565b506060820151613c74606085018261384f565b50505050565b613c83816142c6565b82525050565b613c92816142c6565b82525050565b6000602082019050613cad600083018461372d565b92915050565b6000608082019050613cc8600083018761372d565b613cd5602083018661385e565b613ce2604083018561387c565b613cef6060830184613c89565b95945050505050565b6000606082019050613d0d600083018661372d565b613d1a602083018561387c565b613d276040830184613c89565b949350505050565b6000606082019050613d44600083018661372d565b8181036020830152613d56818561388b565b9050613d65604083018461372d565b949350505050565b6000606082019050613d82600083018661372d565b8181036020830152613d94818561388b565b9050613da3604083018461387c565b949350505050565b600060a082019050613dc0600083018561372d565b613dcd6020830184613c25565b9392505050565b60006040820190508181036000830152613dee818561373c565b90508181036020830152613e02818461373c565b90509392505050565b60006020820190508181036000830152613e25818461379a565b905092915050565b6000608082019050613e4260008301846137f8565b92915050565b6000602082019050613e5d600083018461385e565b92915050565b6000608082019050613e78600083018761385e565b613e85602083018661387c565b613e926040830185613c89565b613e9f606083018461385e565b95945050505050565b60006040820190508181036000830152613ec2818561388b565b9050613ed1602083018461372d565b9392505050565b60006060820190508181036000830152613ef2818661388b565b9050613f01602083018561372d565b613f0e604083018461385e565b949350505050565b60006060820190508181036000830152613f30818661388b565b9050613f3f602083018561387c565b613f4c604083018461385e565b949350505050565b60006020820190508181036000830152613f6d816138c4565b9050919050565b60006020820190508181036000830152613f8d81613904565b9050919050565b60006020820190508181036000830152613fad8161396a565b9050919050565b60006020820190508181036000830152613fcd816139aa565b9050919050565b60006020820190508181036000830152613fed816139ea565b9050919050565b6000602082019050818103600083015261400d81613a50565b9050919050565b6000602082019050818103600083015261402d81613a90565b9050919050565b6000602082019050818103600083015261404d81613ad0565b9050919050565b6000602082019050818103600083015261406d81613b10565b9050919050565b6000602082019050818103600083015261408d81613b50565b9050919050565b600060208201905081810360008301526140ad81613b90565b9050919050565b60006020820190506140c96000830184613c89565b92915050565b6000604051905081810181811067ffffffffffffffff821117156140f6576140f5614463565b5b8060405250919050565b600067ffffffffffffffff82111561411b5761411a614463565b5b601f19601f8301169050602081019050919050565b6000819050602082019050919050565b6000819050602082019050919050565b6000819050919050565b600081519050919050565b600081519050919050565b600060049050919050565b600081519050919050565b6000602082019050919050565b6000602082019050919050565b6000602082019050919050565b600082825260208201905092915050565b600082825260208201905092915050565b600081905092915050565b600082825260208201905092915050565b60006141f6826142c6565b9150614201836142c6565b9250827fffffffffffffffffffffffffffffffffffffffffffffffffffffffffffffffff03821115614236576142356143d6565b5b828201905092915050565b600061424c826142c6565b9150614257836142c6565b92508282101561426a576142696143d6565b5b828203905092915050565b6000614280826142a6565b9050919050565b60008115159050919050565b60008190506142a1826144a3565b919050565b600073ffffffffffffffffffffffffffffffffffffffff82169050919050565b6000819050919050565b600060ff82169050919050565b60006142e882614293565b9050919050565b82818337600083830152505050565b60005b8381101561431c578082015181840152602081019050614301565b8381111561432b576000848401525b50505050565b6000600282049050600182168061434957607f821691505b6020821081141561435d5761435c614434565b5b50919050565b600061436e826142c6565b91507fffffffffffffffffffffffffffffffffffffffffffffffffffffffffffffffff8214156143a1576143a06143d6565b5b600182019050919050565b60006143b7826142d0565b915060ff8214156143cb576143ca6143d6565b5b600182019050919050565b7f4e487b7100000000000000000000000000000000000000000000000000000000600052601160045260246000fd5b7f4e487b7100000000000000000000000000000000000000000000000000000000600052602160045260246000fd5b7f4e487b7100000000000000000000000000000000000000000000000000000000600052602260045260246000fd5b7f4e487b7100000000000000000000000000000000000000000000000000000000600052604160045260246000fd5b6000601f19601f8301169050919050565b600481106144b4576144b3614405565b5b50565b6144c081614275565b81146144cb57600080fd5b50565b6144d781614287565b81146144e257600080fd5b50565b600481106144f257600080fd5b50565b6144fe816142c6565b811461450957600080fd5b5056fea2646970667358221220ade029a372f4039d0f45f6f9049f29e37c1eb5960459c542b29b9cc3980a00a064736f6c63430008000033",
  "immutableReferences": {},
  "source": "        // SPDX-License-Identifier: MIT\n        pragma solidity ^0.8.0;\n\n        contract BloodBank {\n            address public admin;\n            uint public totalDonors;\n            uint public totalPatients;\n            uint public totalHospitals;\n            uint public totalBloodDonated;\n\n            address[] public donorAddresses;\n            address[] public patientAddresses;\n\n            enum BloodType { A, B, AB, O }\n\n            struct Donor {\n                string name;\n                BloodType bloodType;\n                bool isRegistered;\n            }\n\n            struct Patient {\n                string name;\n                BloodType bloodType;\n                bool isRegistered;\n            }\n\n            struct Hospital {\n                string name;\n                address location;\n                bool isRegistered;\n            }\n\n            struct Request {\n            bool isResponded;\n            BloodType bloodType;\n            uint amount;\n            bool response;\n        }\n\n        \n            mapping(address => Donor) public donors;\n            mapping(address => Patient) public patients;\n            mapping(address => Hospital) public hospitals;\n            mapping(address => bool) public allowedDonors;\n            mapping(address => bool) public allowedPatients;\n            mapping(address => bool) public bloodRequests;\n            mapping(BloodType => uint) public bloodInventory;\n            mapping(address => mapping(BloodType => uint)) public donorBalances;\n            mapping(address => mapping(BloodType => Request[])) public patientRequests;\n            mapping(address => Request[]) public patientResponses; // Add mapping to store responses\n            mapping(BloodType => uint) public availableBlood;\n\n            event AdminLoggedIn(address admin);\n            event DonorRegistered(address donor, string name, BloodType bloodType);\n            event PatientRegistered(address patient, string name, BloodType bloodType);\n            event HospitalRegistered(address hospital, string name, address location);\n            event BloodDonated(address donor, BloodType bloodType, uint amount);\n            event BloodRequested(address patient, BloodType bloodType);\n            event DonorPermissionGranted(address donor);\n            event DonorPermissionRevoked(address donor);\n            event PatientPermissionGranted(address patient);\n            event PatientPermissionRevoked(address patient);\n            event RequestResponded(address patient, bool response, BloodType bloodType, uint amount);\n            event BloodRequested(address patient, Request request);\n\n            modifier isAdmin() {\n                require(msg.sender == admin, \"Only the admin can perform this action\");\n                _;\n            }\n            modifier onlyAdminOrPatient() {\n                require(msg.sender == admin || allowedPatients[msg.sender], \"Permission denied\");\n                _;\n            }\n\n            constructor() {\n                admin = msg.sender;\n            }\n\n            function adminLogin() public returns (bool) {\n                emit AdminLoggedIn(msg.sender);\n                return true;\n            }\n\n            function grantDonorPermission(address donorAddress) public {\n                require(!allowedDonors[donorAddress], \"Donor already has permission\");\n                allowedDonors[donorAddress] = true;\n                emit DonorPermissionGranted(donorAddress);\n            }\n\n            function revokeDonorPermission(address donorAddress) public {\n                require(allowedDonors[donorAddress], \"Donor does not have permission\");\n                allowedDonors[donorAddress] = false;\n                emit DonorPermissionRevoked(donorAddress);\n            }\n\n            function isDonorAllowed(address donorAddress) public view returns (bool) {\n                return allowedDonors[donorAddress];\n            }\n\n            function grantPatientPermission(address patientAddress) public {\n                require(!allowedPatients[patientAddress], \"Patient already has permission\");\n                allowedPatients[patientAddress] = true;\n                emit PatientPermissionGranted(patientAddress);\n            }\n\n            function revokePatientPermission(address patientAddress) public {\n                require(allowedPatients[patientAddress], \"Patient does not have permission\");\n                allowedPatients[patientAddress] = false;\n                emit PatientPermissionRevoked(patientAddress);\n            }\n\n            function isPatientAllowed(address patientAddress) public view returns (bool) {\n                return allowedPatients[patientAddress];\n            }\n\n            function addPatient(address patientAddress, string memory name, BloodType bloodType) public isAdmin {\n                require(!patients[patientAddress].isRegistered, \"Patient already registered\");\n                patients[patientAddress] = Patient(name, bloodType, true);\n                totalPatients++;\n                emit PatientRegistered(patientAddress, name, bloodType);\n            }\n\n            function addHospital(address hospitalAddress, string memory name, address location) public isAdmin {\n                require(!hospitals[hospitalAddress].isRegistered, \"Hospital already registered\");\n                hospitals[hospitalAddress] = Hospital(name, location, true);\n                totalHospitals++;\n                emit HospitalRegistered(hospitalAddress, name, location);\n            }\n\n            function registerAsDonor(string memory name, BloodType bloodType) public {\n                donors[msg.sender] = Donor(name, bloodType, true);\n                donorAddresses.push(msg.sender);\n                totalDonors++;\n                emit DonorRegistered(msg.sender, name, bloodType);\n            }\n\n            function registerAsPatient(string memory name, BloodType bloodType) public {\n                patients[msg.sender] = Patient(name, bloodType, true);\n                patientAddresses.push(msg.sender);\n                totalPatients++;\n                emit PatientRegistered(msg.sender, name, bloodType);\n            }\n\n            function locateHospitalToDonate(address hospitalAddress) public view returns (string memory name, address location) {\n                require(hospitals[hospitalAddress].isRegistered, \"Hospital not registered\");\n                return (hospitals[hospitalAddress].name, hospitals[hospitalAddress].location);\n            }\n            \n            function donateBlood(BloodType bloodType, uint amount) public {\n            // Assuming a simplified storage for blood donation amounts\n            donorBalances[msg.sender][bloodType]++;\n            bloodInventory[bloodType] += amount;  // Increment the total blood inventory for the blood type\n            totalBloodDonated += amount;  // Increment the total blood donated\n            emit BloodDonated(msg.sender, bloodType, amount);\n            }\n\n\n\n            // Function to get the total amount of blood donated\n            function getTotalBloodDonated() public view returns (uint) {\n                return totalBloodDonated;\n            }\n\n            // Function to get the blood inventory for a specific blood type\n            function getBloodInventory(BloodType bloodType) public view returns (uint) {\n                return bloodInventory[bloodType];\n            }\n\n        function requestBlood(BloodType bloodType, uint amount) public {\n            require(patients[msg.sender].isRegistered, \"You need to register as a patient first\");\n            // Create a new request object\n            Request memory newRequest = Request({\n                isResponded: false,\n                bloodType: bloodType,\n                amount: amount,\n                response: false\n            });\n            // Add the request to the patient's requests\n            patientRequests[msg.sender][newRequest.bloodType].push(newRequest);\n            // Emit blood request event with the entire request object\n            emit BloodRequested(msg.sender, newRequest);\n        }\n\n        function getPatientRequests(address patientAddress, BloodType bloodType) public view returns (Request[] memory) {\n            Request[] storage requests = patientRequests[patientAddress][bloodType];\n            Request[] memory result = new Request[](requests.length);\n            for (uint i = 0; i < requests.length; i++) {\n                result[i] = requests[i];\n            }\n            return result;\n        }\n\n            function respondToRequest(address patientAddress, BloodType bloodType, bool response) public {\n                require(patients[patientAddress].isRegistered, \"Patient not registered\");\n                require(patientRequests[patientAddress][bloodType].length > 0, \"No blood donation request found\");\n\n                // Get the last request made by the patient\n                Request storage lastRequest = patientRequests[patientAddress][bloodType][patientRequests[patientAddress][bloodType].length - 1];\n\n                // Update the response for the last request\n                lastRequest.isResponded = true;\n                lastRequest.response = response;\n\n                // Store the response\n                patientResponses[patientAddress].push(lastRequest);\n\n                // Emit event for responding to blood donation request\n                emit RequestResponded(patientAddress, response, lastRequest.bloodType, lastRequest.amount);\n            }\n\n            // Add a function to retrieve patient responses\n            function getPatientResponses(address patientAddress) public view returns (Request[] memory) {\n                return patientResponses[patientAddress];\n            }\n                \n                function getRegisteredUsers() public view returns (address[] memory registeredDonors, address[] memory registeredPatients) {\n                return (donorAddresses, patientAddresses);\n            }\n\n            // Function to calculate available blood for each blood type\n            function getAvailableBlood() public view returns (uint[4] memory availableBloodResults) {\n            // Initialize array to store available blood for each blood type (A, B, AB, O)\n            for (uint8 i = 0; i < 4; i++) {\n                BloodType bloodType = BloodType(i);\n                \n                // Calculate available blood for each type\n                uint donated = bloodInventory[bloodType];\n                uint requested = getPendingRequestsByType(bloodType);\n                \n                // Subtract requested from donated to get available\n                if (donated >= requested) {\n                    availableBloodResults[i] = donated - requested;\n                } else {\n                    availableBloodResults[i] = 0; // Avoid negative values\n                }\n            }\n\n            return availableBloodResults;\n        }\n\n            // Function to get pending requests for a specific blood type\n            function getPendingRequestsByType(BloodType bloodType) internal view returns (uint pending) {\n            uint totalPending;\n            address[] memory patientAddress = getRegisteredPatients();\n\n            // Loop through all patients and sum up pending requests for the specified blood type\n            for (uint i = 0; i < patientAddress.length; i++) {\n                Request[] memory requests = patientRequests[patientAddress[i]][bloodType];\n\n                for (uint j = 0; j < requests.length; j++) {\n                    if (!requests[j].isResponded) {\n                        totalPending += requests[j].amount;\n                    }\n                }\n            }\n\n            return totalPending;\n        }\n\n            // Function to get all registered patients\n            function getRegisteredPatients() internal view returns (address[] memory) {\n            return patientAddresses;\n        }\n\n    }",
  "sourcePath": "C:\\Users\\user\\Desktop\\Blockchain\\BloodBank\\contracts\\BloodBank.sol",
  "compiler": {
    "name": "solc",
    "version": "0.8.0+commit.c7dfd78e.Emscripten.clang"
  },
  "schemaVersion": "3.4.16",
  "updatedAt": "2023-12-05T10:10:08.017Z",
  "networkType": "ethereum",
  "devdoc": {
    "kind": "dev",
    "methods": {},
    "version": 1
  },
  "userdoc": {
    "kind": "user",
    "methods": {},
    "version": 1
  }
}